:100000000C942A000C94B3020C94DA020C940103B1
:100010000C9447000C9447000C9447000C94470044
:100020000C9447000C9447000C944F030C94280345
:100030000C9447000C9447000C9447000C94470024
:100040000C9447000C9447000C9447000C94470014
:100050000C94470011241FBECFE5D8E0DEBFCDBF12
:1000600010E0A0E6B0E0E6E1F7E002C005900D92F6
:10007000A43CB107D9F720E0A4ECB0E001C01D9288
:10008000AE3CB207E1F70E9449000C9489030C943E
:100090000000CF93DF93CDB7DEB7C456D1090FB6BA
:1000A000F894DEBF0FBECDBF8EE3E0E6F0E0DE01E8
:1000B000119601900D928A95E1F7FE01FF9686E276
:1000C000DF011D928A95E9F70E94760310E003C0D4
:1000D0000E9481031F5FE1E0F0E0EC0FFD1FE10FE4
:1000E000F11D80818111F4CF0E948503182F1133F7
:1000F00011F50E9485038235C1F028F4863441F061
:100100008C34B1F0F4CF833549F0863521F0EFCF50
:100110000E948301ECCF0E948A01E9CF81E00E9416
:10012000460182E00E944601E2CF0E949101DFCFAA
:100130000E949801DCCF1233D1F661E080E00E948A
:100140008502082F60E080E00E948502813029F45A
:10015000013019F40E948301CACF813029F40111C2
:1001600003C00E949101C3CF811105C0013019F471
:100170000E949801BCCF8111BACF0111B8CF0E9463
:100180008A01B5CF8130F9F441E064E083E00E9458
:100190009F0141E060E082E00E949F0141E061E058
:1001A00082E00E949F0141E064E083E00E9412022D
:1001B00041E060E082E00E94120240E061E082E003
:1001C0000E94120208958230F1F441E065E083E07C
:1001D0000E949F0141E062E082E00E949F0141E0B5
:1001E00063E082E00E949F0141E065E083E00E94BD
:1001F000120241E062E082E00E94120240E063E00D
:1002000082E00E94120208958130F9F441E064E036
:1002100083E00E949F0141E060E082E00E949F0134
:1002200041E061E082E00E949F0141E064E083E000
:100230000E94120240E060E082E00E94120241E06F
:1002400061E082E00E94120208958230F1F441E000
:1002500065E083E00E949F0141E062E082E00E944D
:100260009F0141E063E082E00E949F0141E065E080
:1002700083E00E94120240E062E082E00E941202EB
:1002800041E063E082E00E941202089541E064E0F0
:1002900083E00E949F0141E065E083E00E949F01AE
:1002A00041E060E082E00E949F0141E061E082E085
:1002B0000E949F0141E062E082E00E949F0141E0D4
:1002C00063E082E00E949F0140E064E083E00E94DE
:1002D000120240E065E083E00E94120240E060E02C
:1002E00082E00E94120240E061E082E00E9412027D
:1002F00040E062E082E00E94120240E063E082E0BF
:100300000E941202089581E00E94040182E00E948E
:10031000C200089581E00E94C20082E00E940401B0
:10032000089582E00E94460181E00E94C200089583
:1003300081E00E94460182E00E940401089542305B
:1003400008F06FC04130A1F5813089F028F082308B
:10035000C9F0833011F108952AB381E090E002C022
:10036000880F991F6A95E2F7822B8ABB089527B3FD
:1003700081E090E002C0880F991F6A95E2F7822B16
:1003800087BB089524B381E090E002C0880F991FD5
:100390006A95E2F7822B84BB089521B381E090E057
:1003A00002C0880F991F6A95E2F7822B81BB0895DE
:1003B000411137C0813091F028F08230D9F083307C
:1003C00029F108952AB381E090E002C0880F991FB7
:1003D0006A95E2F7809582238ABB089527B381E06E
:1003E00090E002C0880F991F6A95E2F780958223FA
:1003F00087BB089524B381E090E002C0880F991F65
:100400006A95E2F78095822384BB089521B381E049
:1004100090E002C0880F991F6A95E2F780958223C9
:1004200081BB0895423008F06FC04130A1F58130A2
:1004300089F028F08230C9F0833011F108952BB390
:1004400081E090E002C0880F991F6A95E2F7822B45
:100450008BBB089528B381E090E002C0880F991FFC
:100460006A95E2F7822B88BB089525B381E090E07E
:1004700002C0880F991F6A95E2F7822B85BB089509
:1004800022B381E090E002C0880F991F6A95E2F7DD
:10049000822B82BB0895411137C0813091F028F042
:1004A0008230D9F0833029F108952BB381E090E0B8
:1004B00002C0880F991F6A95E2F7809582238BBB53
:1004C000089528B381E090E002C0880F991F6A95D3
:1004D000E2F78095822388BB089525B381E090E000
:1004E00002C0880F991F6A95E2F78095822385BB29
:1004F000089522B381E090E002C0880F991F6A95A9
:10050000E2F78095822382BB0895813079F028F04C
:100510008230A9F08330E1F024C089B390E002C0BA
:10052000959587956A95E2F78170089586B390E076
:1005300002C0959587956A95E2F78170089583B317
:1005400090E002C0959587956A95E2F781700895CD
:1005500080B390E002C0959587956A95E2F7817027
:10056000089580E008951F920F920FB60F92112404
:100570002F933F934F935F936F937F938F939F93AB
:10058000AF93BF93EF93FF93E091C400F091C50048
:100590000995FF91EF91BF91AF919F918F917F91BD
:1005A0006F915F914F913F912F910F900FBE0F90E0
:1005B0001F9018951F920F920FB60F9211242F9330
:1005C0003F934F935F936F937F938F939F93AF93DB
:1005D000BF93EF93FF93E091C600F091C700099598
:1005E000FF91EF91BF91AF919F918F917F916F910B
:1005F0005F914F913F912F910F900FBE0F901F90E1
:1006000018951F920F920FB60F9211242F933F93BC
:100610004F935F936F937F938F939F93AF93BF930A
:10062000EF93FF93E091C800F091C9000995FF9105
:10063000EF91BF91AF919F918F917F916F915F915A
:100640004F913F912F910F900FBE0F901F901895D3
:100650001F920F920FB60F9211242F933F934F9337
:100660005F936F937F938F939F93AF93BF93EF931A
:10067000FF93E091CA00F091CB000995FF91EF91B3
:10068000BF91AF919F918F917F916F915F914F91AA
:100690003F912F910F900FBE0F901F9018951F92B2
:1006A0000F920FB60F9211242F933F934F935F93A6
:1006B0006F937F938F939F93AF93BF93EF93FF932A
:1006C000E091CC00F091CD000995FF91EF91BF91A1
:1006D000AF919F918F917F916F915F914F913F91DA
:1006E0002F910F900FBE0F901F90189586E880BD38
:1006F00087E689B98AB188608AB98AB180618AB986
:1007000008958CB95D9BFECF08955F9BFECF8CB1A1
:060710000895F894FFCFEC
:10071600456E7465722028312920666F7220626CDE
:100726007565746F6F7468206D6F6465206F7220D5
:1007360028322920666F72206C696E6520666F6CA0
:100746006C6F776572206D6F6465203A200000003B
:100756000000000000000000000000000000000093
:100766000000000000000000000000000000000083
:04077600000000007F
:00000001FF
