:100000000C942A000C9447000C9447000C94470071
:100010000C9447000C9447000C9447000C94470044
:100020000C9447000C9447000C943E050C94170563
:100030000C9447000C9447000C9447000C94470024
:100040000C9447000C9447000C9447000C94470014
:100050000C94470011241FBECFE5D8E0DEBFCDBF12
:1000600011E0A0E6B0E0E2ECFDE002C005900D92E8
:10007000A033B107D9F721E0A0E3B1E001C01D92A0
:10008000A433B207E1F70E9449000C94DF060C94F8
:100090000000AF92BF92CF92DF92EF92FF920F9348
:1000A0001F93CF93DF9360EF80E00E94E5046FEF32
:1000B00081E00E94E5040E942C030E94EA010E9454
:1000C000B003D12C10E0D2C080E790E00E944B0337
:1000D0000E94B002D82FC0E02DC061E08C2F0E949A
:1000E0005E036D2F70E080E090E00E9466032FEFCA
:1000F00083EC99E0215080409040E1F700C000007F
:1001000061E08C2F0E945E038AE20E94F802C130F7
:1001100031F058F0C23029F0C33029F007C00D2F5C
:1001200005C0BD2E03C0AD2E01C0CD2ECF5F0E94F5
:10013000B002D82FDD3389F688EE93E0C89E7001B7
:10014000C99EF00C112424E6029FE00CF11C11243E
:100150008B2D90E09C01220F331F880F991F880F71
:10016000991F880F991F820F931FE80EF91EEA0C42
:10017000F11C81E00E94120382E890E00E944B0390
:10018000D0E011C061E08D2F0E945E038EE20E94DC
:10019000F8028FEF91EE24E0815090402040E1F78B
:1001A00000C00000DF5FDA3068F381E00E941203D4
:1001B00082EDE81684E0F80641F5C53030F58EE8AA
:1001C00090E00E944B0341E067E081E00E9444041C
:1001D0009FEF23ED80E3915020408040E1F700C085
:1001E000000081E00E94120380EA90E00E944B032D
:1001F0009FEF27EA81E6915020408040E1F700C060
:10020000000081E00E94120334C01F5F8DEA90E07D
:100210000E944B0341E066E081E00E9444049FEFAE
:1002200027EA81E6915020408040E1F700C00000BD
:1002300081E00E9412031330B8F440E066E081E0F0
:100240000E9444048EEB90E00E944B039FEF23ED4D
:1002500080E3915020408040E1F700C0000081E041
:100260000E941203D12C02C0DD24D394133008F471
:100270002BCF133009F493C0D110F8CF80E00E9447
:10028000C003BC0180E090E00E94990520E030E0CE
:100290004AEF53E40E94280620E030E040E85AE3A9
:1002A0000E9428066B017C0160E080E00E945E03F2
:1002B00081EE90E00E944B03C701B6010E946A05DF
:1002C0000E94660320E030E040EF51E4C701B60130
:1002D0000E946505882364F480E00E94F50461E0D3
:1002E00080E00E945E0380EF90E00E944B03C6CF47
:1002F00020E030E040EF51E4C701B6010E94230640
:100300008823B4F020E030E040E252E4C701B601B7
:100310000E946505882364F48EE10E94F50461E083
:1003200080E00E945E038FEF90E00E944B03A6CF17
:1003300020E030E040E252E4C701B6010E9423060B
:100340008823B4F020E030E048E452E4C701B6016D
:100350000E946505882364F482E30E94F50461E04D
:1003600080E00E945E038FE091E00E944B0386CF05
:1003700020E030E048E452E4C701B6010E942306C1
:1003800088230CF47BCF83E60E94F50461E080E0D3
:100390000E945E038FE191E00E944B036FCF82EDDC
:1003A00090E00E944B0341E066E081E00E9444043B
:1003B00041E064E081E00E94440480E090E0DF914D
:1003C000CF911F910F91FF90EF90DF90CF90BF9052
:1003D000AF900895FF920F931F93CF93DF93CDB704
:1003E000DEB728970FB6F894DEBF0FBECDBF1982D7
:1003F00081E08A8382E08B8383E08C8384E08D8339
:1004000085E08E8386E08F8387E0888700E010E0B8
:1004100024C0E5E0F0E0EC0FFD1FE10FF11DF080DE
:1004200040E06F2D82E00E94D10341E06F2D82E019
:100430000E944404E1E0F0E0EC0FFD1FE00FF11D2D
:10044000F08041E06F2D82E00E94D10341E06F2DEA
:1004500082E00E9444041F5F0F5F143010F40430E8
:10046000C0F228960FB6F894DEBF0FBECDBFDF9165
:10047000CF911F910F91FF900895AF92BF92CF92AD
:10048000DF92EF92FF920F931F93CF93DF93CDB73D
:10049000DEB728970FB6F894DEBF0FBECDBF198226
:1004A00081E08A8382E08B8383E08C8384E08D8388
:1004B00085E08E8386E08F8387E08887B12C3BC000
:1004C000CB2CD12CE1E0F0E0EC0FFD1FEC0DFD1D7D
:1004D000A08040E06A2D82E00E94440410E023C026
:1004E000E12EF12CE5E0F0E0EC0FFD1FEE0DFF1D1D
:1004F0000081602F82E00E94B704811113C0C70100
:10050000880F991F880F991F805A9F4FFC01EC0D8F
:10051000FD1D1081602F82E00E94B7048823D1F373
:10052000812F0DC01F5F1430D8F241E06A2D82E0A8
:100530000E944404B39483E08B1510F68FEF289645
:100540000FB6F894DEBF0FBECDBFDF91CF911F91E4
:100550000F91FF90EF90DF90CF90BF90AF900895F4
:100560000E943D028F3FE1F308950F931F93CF93B5
:10057000DF9300D000D0CDB7DEB7082F84E08983A9
:1005800085E08A8386E08B8387E08C8310E014C04B
:10059000402F50E0012E02C0559547950A94E2F78E
:1005A0004170E1E0F0E0EC0FFD1FE10FF11D608113
:1005B00080E00E9444041F5F143050F30F900F90AE
:1005C0000F900F90DF91CF911F910F91089541E00F
:1005D00062E081E00E9444048FE39FE10197F1F71C
:1005E00000C0000040E062E081E00E944404089501
:1005F000CF93C82F41E060E081E00E94440440E0D6
:1006000061E081E00E9444048C2F82958F700E94EB
:10061000B5020E94E7028C2F0E94B5020E94E702F9
:10062000CF910895CF93C82F40E060E081E00E9411
:10063000440440E061E081E00E9444048C2F8295F4
:100640008F700E94B5020E94E7028C2F0E94B502B3
:100650000E94E702CF9108952FEF83EF91E02150A0
:1006600080409040E1F700C0000082E00E94B502A7
:100670000E94E70282E00E94B5020E94E70288E041
:100680000E94B5020E94E7028CE00E94120381E002
:100690000E94120308950F931F93CF938C01C0E023
:1006A00003C00E94F802CF5FF801EC0FF11D8081BA
:1006B0008111F7CFCF911F910F91089590E4699F19
:1006C000800D112480680E94120308951F93CF9318
:1006D000DF93CDB7DEB72A970FB6F894DEBF0FBE13
:1006E000CDBF6115710581059105D1F480E30E94AC
:1006F000F8022CC02AE030E040E050E00E94BD0645
:10070000E1E0F0E0EC0FFD1FE10FF11D17FDFA95A0
:10071000605D6083622F732F842F952F1F5F01C050
:1007200010E0611571058105910521F711500CC08C
:10073000E1E0F0E0EC0FFD1FE10FF11D17FDFA9570
:1007400080810E94F8021150112394F72A960FB667
:10075000F894DEBF0FBECDBFDF91CF911F910895FA
:1007600087B18F7787B987B1806487B986B1887F71
:1007700086B986B1876086B986B1806886B90895E2
:1007800097B1907E97B997B1892B87B986B180646C
:1007900086B9349BFECF86B1806186B984B195B1AC
:1007A0000895423008F06FC04130A1F5813089F0E2
:1007B00028F08230C9F0833011F108952AB381E026
:1007C00090E002C0880F991F6A95E2F7822B8ABBDE
:1007D000089527B381E090E002C0880F991F6A95C1
:1007E000E2F7822B87BB089524B381E090E002C03A
:1007F000880F991F6A95E2F7822B84BB089521B375
:1008000081E090E002C0880F991F6A95E2F7822B81
:1008100081BB0895411137C0813091F028F08230BA
:10082000D9F0833029F108952AB381E090E002C025
:10083000880F991F6A95E2F7809582238ABB0895F5
:1008400027B381E090E002C0880F991F6A95E2F714
:100850008095822387BB089524B381E090E002C095
:10086000880F991F6A95E2F78095822384BB0895CB
:1008700021B381E090E002C0880F991F6A95E2F7EA
:100880008095822381BB0895423008F06FC04130CB
:10089000A1F5813089F028F08230C9F0833011F160
:1008A00008952BB381E090E002C0880F991F6A95EC
:1008B000E2F7822B8BBB089528B381E090E002C061
:1008C000880F991F6A95E2F7822B88BB089525B39C
:1008D00081E090E002C0880F991F6A95E2F7822BB1
:1008E00085BB089522B381E090E002C0880F991F74
:1008F0006A95E2F7822B82BB0895411137C081309F
:1009000091F028F08230D9F0833029F108952BB38B
:1009100081E090E002C0880F991F6A95E2F7809508
:1009200082238BBB089528B381E090E002C0880F3A
:10093000991F6A95E2F78095822388BB089525B3B5
:1009400081E090E002C0880F991F6A95E2F78095D8
:10095000822385BB089522B381E090E002C0880F16
:10096000991F6A95E2F78095822382BB08958130B2
:1009700079F028F08230A9F08330E1F024C089B307
:1009800090E002C0959587956A95E2F78170089589
:1009900086B390E002C0959587956A95E2F78170DD
:1009A000089583B390E002C0959587956A95E2F724
:1009B0008170089580B390E002C0959587956A95FF
:1009C000E2F78170089580E00895813041F028F0C9
:1009D000823039F0833039F008956ABB089567BBDF
:1009E000089564BB089561BB089593B7986093BF61
:1009F00093B7906493BF93B7906293BF93B79F7E72
:100A000093BF93B7987F93BF93B7936093BF682FBB
:100A100070E080E090E00E949B052AE037ED43E221
:100A200050E40E9428060E946A056CBF08951F9238
:100A30000F920FB60F9211242F933F934F935F9312
:100A40006F937F938F939F93AF93BF93EF93FF9396
:100A5000E0913001F09131010995FF91EF91BF9143
:100A6000AF919F918F917F916F915F914F913F9146
:100A70002F910F900FBE0F901F9018951F920F92FD
:100A80000FB60F9211242F933F934F935F936F9361
:100A90007F938F939F93AF93BF93EF93FF93E091D7
:100AA0003201F09133010995FF91EF91BF91AF9120
:100AB0009F918F917F916F915F914F913F912F9176
:100AC0000F900FBE0F901F9018950E94D60508F446
:100AD00081E008950E94020688F09F5798F0B92F90
:100AE0009927B751B0F0E1F0660F771F881F991F63
:100AF0001AF0BA95C9F714C0B13091F00E941C06E3
:100B0000B1E008950C941C06672F782F8827B85FF2
:100B100039F0B93FCCF3869577956795B395D9F7BA
:100B20003EF490958095709561957F4F8F4F9F4FC4
:100B30000895E89409C097FB3EF4909580957095D0
:100B400061957F4F8F4F9F4F9923A9F0F92F96E919
:100B5000BB279395F695879577956795B795F1118E
:100B6000F8CFFAF4BB0F11F460FF1BC06F5F7F4F2B
:100B70008F4F9F4F16C0882311F096E911C077233D
:100B800021F09EE8872F762F05C0662371F096E846
:100B9000862F70E060E02AF09A95660F771F881F15
:100BA000DAF7880F9695879597F90895990F0008B9
:100BB000550FAA0BE0E8FEEF16161706E807F9072F
:100BC000C0F012161306E407F50798F0621B730BCA
:100BD000840B950B39F40A2661F0232B242B252B4B
:100BE00021F408950A2609F4A140A6958FEF811DEE
:100BF000811D089557FD9058440F551F59F05F3FD0
:100C000071F04795880F97FB991F61F09F3F79F02E
:100C100087950895121613061406551FF2CF4695B0
:100C2000F1DF08C0161617061806991FF1CF869532
:100C30007105610508940895E894BB276627772716
:100C4000CB0197F908950E94D60508F48FEF089517
:100C50000E943B060C94AC060E949E0638F00E944F
:100C6000A50620F0952311F00C9495060C949B0694
:100C700011240C941D060E94FA0570F3959FC1F390
:100C8000950F50E0551F629FF001729FBB27F00D3A
:100C9000B11D639FAA27F00DB11DAA1F649F66278F
:100CA000B00DA11D661F829F2227B00DA11D621FDE
:100CB000739FB00DA11D621F839FA00D611D221F98
:100CC000749F3327A00D611D231F849F600D211D7C
:100CD000822F762F6A2F11249F5750409AF0F1F0FF
:100CE00088234AF0EE0FFF1FBB1F661F771F881F68
:100CF00091505040A9F79E3F510580F00C94950605
:100D00000C941D065F3FE4F3983ED4F386957795E7
:100D10006795B795F795E7959F5FC1F7FE2B880F0D
:100D2000911D9695879597F9089597F99F6780E8A3
:100D300070E060E008959FEF80EC089500240A942D
:100D40001616170618060906089500240A941216A6
:100D50001306140605060895092E0394000C11F4D9
:100D6000882352F0BB0F40F4BF2B11F460FF04C086
:100D70006F5F7F4F8F4F9F4F0895A1E21A2EAA1BDE
:100D8000BB1BFD010DC0AA1FBB1FEE1FFF1FA2173B
:100D9000B307E407F50720F0A21BB30BE40BF50B38
:100DA000661F771F881F991F1A9469F760957095C1
:100DB000809590959B01AC01BD01CF010895F894F9
:020DC000FFCF63
:100DC2000708092F0405062A0102032D63003D2BA3
:100DD200456E7465722070617373776F7264203A26
:100DE2002000506C65617365207761697400436F00
:100DF20072726563742050617373776F72642E0030
:100E020057656C636F6D6520557365720057726F1D
:100E12006E672050617373776F7264212100506C8A
:100E2200656173652054727920616761696E202162
:100E32002100416C61726D206973204F6E20212167
:100E42000054656D7065726174757265203D200095
:100E520046616E205370656564203D203025004652
:100E6200616E205370656564203D20333025004655
:100E7200616E205370656564203D20353025004643
:100E8200616E205370656564203D2031303025004D
:00000001FF
