:100000000C942A000C9464040C948B040C94B20499
:100010000C9447000C9447000C9447000C948607FE
:100020000C9447000C9447000C94930F0C946C0FA5
:100030000C9447000C9447000C9447000C94470024
:100040000C9447000C9447000C9447000C94470014
:100050000C94470011241FBECFE5D8E0DEBFCDBF12
:1000600011E0A0E6B0E0ECE9F2E202C005900D92EA
:10007000A630B107D9F725E0A6E0B1E001C01D9296
:10008000A436B207E1F70E94E6010C944C110C94DF
:100090000000CF93DF931F92CDB7DEB720E044E698
:1000A00050E060E070E080915E0590915F050E94F5
:1000B00066090E94C50F898320E044E650E0BE0136
:1000C0006F5F7F4F80916205909163050E94D40815
:1000D00020E040E050E060E070E080915E059091AB
:1000E0005F050E94D40888EE93E00E94590D0F909E
:1000F000DF91CF910895CF93DF931F92CDB7DEB7F5
:1001000020E048EC50E060E070E080915E05909166
:100110005F050E94660920E044E650E0BE016F5F83
:100120007F4F80916205909163050E9466098981E5
:100130008136F1F482E690E00E94E80241E067E057
:1001400081E00E94E1032FEF33ED80E32150304046
:100150008040E1F700C0000020E040E050E060E0B7
:1001600070E080915E0590915F050E94D40820C0E8
:1001700060E080E00E94FB0284E790E00E94E802D9
:1001800061E080E00E94FB0285E890E00E94E802C6
:1001900041E066E081E00E94E1039FEF23EB34EC55
:1001A00084E09150204030408040D9F700C00000EA
:1001B00080ED97E00E94590D0F90DF91CF91089547
:1001C000CF93DF9300D000D0CDB7DEB719821A826B
:1001D0001B821C8220E04CE251E060E070E08091E4
:1001E0005E0590915F050E946609813029F580E0E7
:1001F0000E945D03BC0180E090E00E94FD0F20E0C2
:1002000030E04AEF53E40E948C1020E030E040E8F8
:100210005AE30E948C1069837A838B839C8320E04D
:1002200048EC50E0BE016F5F7F4F80916005909178
:1002300061050E94D408DBCF20E040E050E060E0A0
:1002400070E080915E0590915F050E94D40888EB74
:100250009BE00E94590D0F900F900F900F90DF912F
:10026000CF910895CF92DF92EF92FF92CF93DF93D9
:1002700000D000D0CDB7DEB720E040E951E060E02B
:1002800070E080915E0590915F050E946609813063
:1002900009F08DC020E048EC50E0BE016F5F7F4F59
:1002A00080916005909161050E94660960E080E0A0
:1002B0000E94FB0289E990E00E94E80269817A814C
:1002C0008B819C810E94CE0F0E940303C980DA803B
:1002D000EB80FC8020E030E040EF51E4C701B60144
:1002E0000E94C90F882364F480E00E944A0F61E0F5
:1002F00080E00E94FB0288EA90E00E94E802CACFF8
:1003000020E030E040EF51E4C701B6010E948710C1
:100310008823B4F020E030E040E252E4C701B601A7
:100320000E94C90F882364F48EE10E944A0F61E0A5
:1003300080E00E94FB0287EB90E00E94E802AACFD7
:1003400020E030E040E252E4C701B6010E9487108D
:100350008823B4F020E030E048E452E4C701B6015D
:100360000E94C90F882364F482E30E944A0F61E06F
:1003700080E00E94FB0287EC90E00E94E8028ACFB6
:1003800020E030E048E452E4C701B6010E94871043
:1003900088230CF47FCF83E60E944A0F61E080E05F
:1003A0000E94FB0287ED90E00E94E80273CF80EA92
:1003B0009FE00E94590D0F900F900F900F90DF91CA
:1003C000CF91FF90EF90DF90CF900895EF92FF9242
:1003D0000F9360EF80E00E94540440E060E083E00F
:1003E0000E946E0340E061E083E00E946E036FECC8
:1003F00081E00E9454040E94C9020E944D030E94A1
:10040000BA0FE12CF12C04E020E030E040E550E0B0
:1004100068EE70E089E490E00E94A90B03E020E020
:1004200030E040E550E06EEE70E08BE790E00E9437
:10043000A90B02E020E030E040E550E064EF70E01E
:1004400080EE90E00E94A90B01E020E030E040E562
:1004500050E06AEF70E082E391E00E94A90B43E074
:1004600060E081E00E94AA0890935F0580935E059A
:1004700040E061E081E00E94AA08909363058093C8
:10048000620540E064E081E00E94AA089093610563
:10049000809360050E94FD0B80E090E00F91FF903B
:1004A000EF9008950F931F93CF93DF9300D000D068
:1004B000CDB7DEB7082F84E0898385E08A8386E0A4
:1004C0008B8387E08C8310E014C0402F50E0012E16
:1004D00002C0559547950A94E2F74170E1E0F0E0DB
:1004E000EC0FFD1FE10FF11D608180E00E94E10330
:1004F0001F5F143050F30F900F900F900F90DF910B
:10050000CF911F910F91089541E062E081E00E9438
:10051000E1038FE39FE10197F1F700C0000040E0A5
:1005200062E081E00E94E1030895CF93C82F41E08B
:1005300060E081E00E94E10340E061E081E00E9430
:10054000E1038C2F82958F700E9452020E948402D8
:100550008C2F0E9452020E948402CF910895CF9363
:10056000C82F40E060E081E00E94E10340E061E0EC
:1005700081E00E94E1038C2F82958F700E945202CD
:100580000E9484028C2F0E9452020E948402CF910A
:1005900008952FEF83EF91E0215080409040E1F7E4
:1005A00000C0000082E00E9452020E94840282E0A9
:1005B0000E9452020E94840288E00E9452020E941D
:1005C00084028CE00E94AF0281E00E94AF02089595
:1005D0000F931F93CF938C01C0E003C00E9495023C
:1005E000CF5FF801EC0FF11D80818111F7CFCF9122
:1005F0001F910F91089590E4699F800D11248068E8
:100600000E94AF0208951F93CF93DF93CDB7DEB75B
:100610002A970FB6F894DEBF0FBECDBF61157105E6
:1006200081059105D1F480E30E9495022CC02AE057
:1006300030E040E050E00E942111E1E0F0E0EC0FFA
:10064000FD1FE10FF11D17FDFA95605D6083622FBC
:10065000732F842F952F1F5F01C010E06115710566
:100660008105910521F711500CC0E1E0F0E0EC0F9D
:10067000FD1FE10FF11D17FDFA9580810E94950283
:100680001150112394F72A960FB6F894DEBF0FBECF
:10069000CDBFDF91CF911F91089587B18F7787B933
:1006A00087B1806487B986B1887F86B986B1876053
:1006B00086B986B1806886B9089597B1907E97B95A
:1006C00097B1892B87B986B1806486B9349BFECFF8
:1006D00086B1806186B984B195B10895423008F041
:1006E0006FC04130A1F5813089F028F08230C9F027
:1006F000833011F108952AB381E090E002C0880FA1
:10070000991F6A95E2F7822B8ABB089527B381E08F
:1007100090E002C0880F991F6A95E2F7822B87BB91
:10072000089524B381E090E002C0880F991F6A9574
:10073000E2F7822B84BB089521B381E090E002C0F0
:10074000880F991F6A95E2F7822B81BB08954111AA
:1007500037C0813091F028F08230D9F0833029F110
:1007600008952AB381E090E002C0880F991F6A952E
:10077000E2F7809582238ABB089527B381E090E059
:1007800002C0880F991F6A95E2F78095822387BB84
:10079000089524B381E090E002C0880F991F6A9504
:1007A000E2F78095822384BB089521B381E090E035
:1007B00002C0880F991F6A95E2F78095822381BB5A
:1007C0000895423008F06FC04130A1F5813089F0C2
:1007D00028F08230C9F0833011F108952BB381E005
:1007E00090E002C0880F991F6A95E2F7822B8BBBBD
:1007F000089528B381E090E002C0880F991F6A95A0
:10080000E2F7822B88BB089525B381E090E002C017
:10081000880F991F6A95E2F7822B85BB089522B352
:1008200081E090E002C0880F991F6A95E2F7822B61
:1008300082BB0895411137C0813091F028F0823099
:10084000D9F0833029F108952BB381E090E002C004
:10085000880F991F6A95E2F7809582238BBB0895D4
:1008600028B381E090E002C0880F991F6A95E2F7F3
:100870008095822388BB089525B381E090E002C073
:10088000880F991F6A95E2F78095822385BB0895AA
:1008900022B381E090E002C0880F991F6A95E2F7C9
:1008A0008095822382BB0895813041F028F0823008
:1008B00039F0833039F008956ABB089567BB089515
:1008C00064BB089561BB08951F920F920FB60F92FB
:1008D00011242F933F934F935F936F937F938F9345
:1008E0009F93AF93BF93EF93FF93E0910601F09135
:1008F00007010995FF91EF91BF91AF919F918F9162
:100900007F916F915F914F913F912F910F900FBE0B
:100910000F901F9018951F920F920FB60F921124EF
:100920002F933F934F935F936F937F938F939F93F7
:10093000AF93BF93EF93FF93E0910801F09109010A
:100940000995FF91EF91BF91AF919F918F917F9109
:100950006F915F914F913F912F910F900FBE0F902C
:100960001F9018951F920F920FB60F9211242F937C
:100970003F934F935F936F937F938F939F93AF9327
:10098000BF93EF93FF93E0910A01F0910B0109955A
:10099000FF91EF91BF91AF919F918F917F916F9157
:1009A0005F914F913F912F910F900FBE0F901F902D
:1009B0001895E1E1F1E086E191E091838083138273
:1009C0001282EDE0F1E087EE93E09383828311825F
:1009D0001082A5E1B1E014969C938E931397129622
:1009E000FC93EE93119708950F931F93CF93DF938A
:1009F000EC010E94270C80910C01811105C00E941E
:100A0000D90481E080930C01209709F02496CE014F
:100A10000197863E934008F056C0E0911101F09195
:100A20001201A1E1B1E002C0DF01FC0182819381EA
:100A30008C179D0720F4808191810097A9F781E0B0
:100A4000ED30F80709F442C00D911C9111970C5F2D
:100A50001F4F808191818D939C93828193818C1B08
:100A60009D0B8930910510F1AF014C0F5D1FDA012C
:100A700013969C938E931297D383C28312962D91D3
:100A80003C91139761E171E001C0BD01EB01A881C8
:100A9000B98112968D919C91139782179307A8F3B1
:100AA000EA01B983A883DB014D935C9322813381F2
:100AB0008091600090916100821B930B9093610084
:100AC0008093600005C000E010E002C000E010E08C
:100AD0000E94E70CC801DF91CF911F910F910895FB
:100AE0000F931F93CF93DF93009741F1EC018C019B
:100AF000045011090E94270CF80142815381A1E1A1
:100B0000B1E001C0DF01ED91FC91119722813381A9
:100B100024173507B8F32497F983E8830D931C93C2
:100B20008A819B812091600030916100820F931F28
:100B300090936100809360000E94E70CDF91CF9159
:100B40001F910F910895FC010396928381832FEFEB
:100B50003FEF348323839683858390878783108236
:100B60000895FC01118610860895CF93DF939C01B0
:100B7000FB01DC011196CD91DC911297D383C283E6
:100B80008C819D81958384838C819D81DC0113966A
:100B90007C936E9312977D836C8331872087F90154
:100BA00080818F5F8083DF91CF910895CF93DF9312
:100BB000EB01488159814F3F2FEF520721F4FC018F
:100BC000A781B0850DC0DC01139601C0DF0112962C
:100BD000ED91FC9113972081318142175307B0F7B3
:100BE0001296ED91FC911397FB83EA83D583C4831E
:100BF000BD83AC831396DC93CE9312979987888735
:100C0000FC0120812F5F2083DF91CF910895CF9346
:100C1000DF93FC01A085B185C281D3818481958158
:100C20009D838C83C481D581828193819B838A83B8
:100C300011968D919C911297E817F90731F48481F0
:100C4000958112969C938E931197118610868C91A4
:100C500081508C93DF91CF9108951BBC89EF8ABDA1
:100C60008BE08EBD89B7806189BF089531E1FC01B9
:100C70003083319722E220833197A3E3A083319719
:100C800060833197708331971082319760E8608379
:100C900031971082319762E06083319763E060831F
:100CA000319764E06083319765E06083319766E057
:100CB0006083319767E06083319768E060833197A4
:100CC00069E06083319760E16083319730833197C9
:100CD00032E13083319733E13083319734E130832F
:100CE000319735E13083319736E13083319737E101
:100CF0003083319738E13083319739E13083319750
:100D000030E23083319731E230833197208331975D
:100D100023E220833197408331975083319726E235
:100D20002083319727E22083319728E2208331976F
:100D300029E22083319720E32083319721E3208328
:100D4000869708950E942D06A0915805B0915905E7
:100D5000CD91CDBFDD91DEBFFF91EF91DF91CF91BE
:100D6000BF91AF919F918F917F916F915F914F91C3
:100D70003F912F911F910F91FF90EF90DF90CF90B7
:100D8000BF90AF909F908F907F906F905F904F90AB
:100D90003F902F901F900F900FBE0F90089581E00D
:100DA00008950F920FB6F8940F921F9211242F926C
:100DB0003F924F925F926F927F928F929F92AF92EB
:100DC000BF92CF92DF92EF92FF920F931F932F93D8
:100DD0003F934F935F936F937F938F939F93AF93C3
:100DE000BF93CF93DF93EF93FF93A0915805B091FA
:100DF00059050DB60D920EB60D920E94A00DA09150
:100E00005805B0915905CD91CDBFDD91DEBFFF9161
:100E1000EF91DF91CF91BF91AF919F918F917F9192
:100E20006F915F914F913F912F911F910F91FF9083
:100E3000EF90DF90CF90BF90AF909F908F907F907A
:100E40006F905F904F903F902F901F900F900FBE2C
:100E50000F9008950F920FB6F8940F921F921124DD
:100E60002F923F924F925F926F927F928F929F92BA
:100E7000AF92BF92CF92DF92EF92FF920F931F93A8
:100E80002F933F934F935F936F937F938F939F9392
:100E9000AF93BF93CF93DF93EF93FF93A091580548
:100EA000B09159050DB60D920EB60D920E942D0C03
:100EB00081110E94A00DA0915805B0915905CD91C6
:100EC000CDBFDD91DEBFFF91EF91DF91CF91BF915B
:100ED000AF919F918F917F916F915F914F913F91D2
:100EE0002F911F910F91FF90EF90DF90CF90BF90C7
:100EF000AF909F908F907F906F905F904F903F90BA
:100F00002F901F900F900FBE0F9008950E942A07F8
:100F100018950FB6F8940F92FC01828D811102C0D2
:100F200081E001C080E00F900FBE08950FB6F894E5
:100F30000F92FC01228D838D281302C081E001C035
:100F400080E00F900FBE08950F931F93CF93DF9310
:100F5000EC01042F1A8D4C8D41110CC088819981B0
:100F6000892B09F042C08A819B810E94F80E1B8266
:100F70001A8242C0011117C050E08C819D810E94ED
:100F800043112C8D8C819D81820F911D9D838C83BB
:100F90002A813B818217930750F1888199819D8333
:100FA0008C8380E029C050E08E819F810E94431194
:100FB0008C8D90E09195819591092E813F81280F2C
:100FC000391F3F832E83488159812417350730F418
:100FD0002A813B81820F931F9F838E83023049F4C5
:100FE000112349F0115080E007C080E005C080E087
:100FF00003C080E001C080E01F5F1A8FDF91CF91B6
:101000001F910F910895FC01448D4423A9F050E0F5
:1010100026813781240F351F378326838281938170
:101020002817390720F08081918197838683CB012F
:10103000668177810E94431108951F93CF93DF93B8
:10104000EC010FB6F8940F921E8D0BC0898988238E
:1010500051F0CE0141960E94060E81110E94920E1F
:10106000115011169CF38FEF8E8F0F900FBE0FB69D
:10107000F8940F921D8D0BC08885882351F0CE0106
:1010800008960E94060E81110E94920E11501116B0
:101090009CF38FEF8D8F0F900FBEDF91CF911F913B
:1010A0000895CF93DF93EC010FB6F8940F92E88187
:1010B000F9818B8D90E02C8D30E0829FA001839F81
:1010C000500D929F500D11244E0F5F1F5B834A837A
:1010D0001A8EFD83EC830197289FA001299F500D54
:1010E000389F500D1124CF01840F951F9F838E834D
:1010F0008FEF8D8F8E8F61110CC08885882389F0CA
:10110000CE0108960E94060E882359F00E94D1064F
:1011100008C0CE0108960E94A305CE0141960E9408
:10112000A3050F900FBE81E0DF91CF9108950F933B
:101130001F93F801611103C01183008302C0518322
:101140004083838F648F61E0CF010E9451081F911B
:101150000F910895DF92EF92FF920F931F93CF9319
:10116000DF93E82EF62ED42E662321F0869FC00151
:10117000112402C080E090E04F960E94F404EC013C
:10118000009749F08C012D2DAC01415E5F4F6F2D12
:101190008E2D0E949708CE01DF91CF911F910F9164
:1011A000FF90EF90DF900895CF92DF92EF92FF9241
:1011B0000F931F93CF93DF9300D000D01F92CDB732
:1011C000DEB78C017B015D834C83C22ED12C0FB620
:1011D000F8940F92F801928D838D981718F0F2E031
:1011E000CF1219C04C2DB701C8010E94A407F80105
:1011F0009189992349F0C80141960E94060E8823DF
:1012000031F00E94D10603C081110E94D1060F90D7
:101210000FBE81E04DC08C819D81892B21F40F9000
:101220000FBE80E045C0D11006C0CE0101960E94DD
:101230004E0EDD24D3940F900FBE0E94270C0FB6E4
:10124000F8940F92F801858D8F3F09F4158EF801FF
:10125000868D8F3F09F4168E0F900FBEBE016C5F16
:101260007F4FCE0101960E94590E81111BC0C8010B
:101270000E949607882381F06C817D81C8010896C1
:101280000E94F40DC8010E941D080E94E70C811104
:101290009ECF0E94D1069BCFC8010E941D080E94CC
:1012A000E70C95CFC8010E941D080E94E70C80E062
:1012B0000F900F900F900F900F90DF91CF911F9193
:1012C0000F91FF90EF90DF90CF9008958F929F92B3
:1012D000BF92CF92DF92EF92FF920F931F93CF9323
:1012E000DF9300D000D01F92CDB7DEB78C016B0129
:1012F0005D834C83B22EE12C0FB6F8940F92F80167
:10130000F28CFF2091F186809780B601C8010E947F
:101310000308B11019C0FA94F801F28E808191810E
:10132000892B29F40E94380FF80193838283F801F6
:1013300080858823B1F0C80108960E94060E882394
:1013400081F00E94D1060DC0F801978286828189C2
:10135000882339F0C80141960E94060E81110E942F
:10136000D1060F900FBE81E061C08C819D81892BD9
:1013700021F40F900FBE80E059C0E11006C0CE01ED
:1013800001960E944E0EEE24E3940F900FBE0E9431
:10139000270C0FB6F8940F92F801858D8F3F09F452
:1013A000158EF801868D8F3F09F4168E0F900FBEB3
:1013B000BE016C5F7F4FCE0101960E94590E8111D4
:1013C00029C0C8010E9489078823F1F0F8018081B3
:1013D0009181892B49F40FB6F8940F928281938101
:1013E0000E94960E0F900FBE6C817D81C8014196C0
:1013F0000E94F40DC8010E941D080E94E70C811193
:101400007BCF0E94D10678CFC8010E941D080E94A0
:10141000E70C72CFC8010E941D080E94E70CC801AA
:101420000E948907882309F467CF80E00F900F900E
:101430000F900F900F90DF91CF911F910F91FF9020
:10144000EF90DF90CF90BF909F908F900895E091A4
:101450002905F0912A058081811107C08FEF9FEF48
:1014600090930105809300050895E0912905F0917E
:101470002A050580F681E02D0680F781E02D828126
:10148000938190930105809300050895CF93DF9396
:10149000EC018F89988D0E947005CE010E94700525
:1014A000DF91CF9108956F927F928F929F92AF922A
:1014B000BF92CF92DF92EF920F931F93CF93DF9360
:1014C000CDB7DEB74C01F5018789908D21503109E8
:1014D0003C01620E731E20E00FC0822F90E0FB01E2
:1014E000E80FF91F3081D501A80FB91F59963C9319
:1014F0008081882319F02F5F283078F3F50110A23E
:10150000F2E0FE1518F46894EE24E1F8F501E68A9D
:10151000E1A212A2C50102960E94B105C5010C9676
:101520000E94B105F501B186A08683E090E08E1996
:10153000910995878487B38AA28A13A214A215A25F
:1015400016A217A2A801B401C3010E943606F50134
:1015500091838083C114D10419F0F601B182A08275
:10156000DF91CF911F910F91EF90DF90CF90BF90BF
:10157000AF909F908F907F906F900895CF93C0E031
:1015800010C08C2F90E09C01220F331F220F331FBD
:10159000220F331F820F931F835C9A4F0E94A30573
:1015A000CF5FC33070F384E395E00E94A3058BE224
:1015B00095E00E94A3058EE195E00E94A30585E1D8
:1015C00095E00E94A3058BE095E00E94A30584E3CB
:1015D00095E090932A05809329058BE295E09093FE
:1015E000280580932705CF910895CF93DF93EC01D1
:1015F0000FB6F8940F9280910A058F5F80930A05C9
:101600008091580590915905892B59F4D09359052B
:10161000C093580580910A05813099F40E94BE0A52
:1016200010C08091060581110CC0E0915805F09121
:10163000590596898E89891720F0D0935905C09352
:101640005805809102058F5F809302058E899091E5
:101650000705981710F48093070590E09C01220F6E
:10166000331F220F331F220F331F820F931FBE0120
:101670006E5F7F4F835C9A4F0E94B5050F900FBE3F
:1016800080910605882351F0E0915805F0915905A5
:1016900096898E89981710F40E94D106DF91CF9118
:1016A0000895FF920F931F93CF93DF93EC01F62ED3
:1016B00000910805109109058091580590915905F0
:1016C00002960E940706CF3F8FEFD80769F4FF20EC
:1016D00059F060915805709159056E5F7F4F8BE00E
:1016E00095E00E94B5052FC0C00FD11FE0915805AD
:1016F000F0915905D383C283C017D10768F4609174
:1017000058057091590580912705909128056E5FC5
:101710007F4F0E94D60517C06091580570915905FA
:101720008091290590912A056E5F7F4F0E94D60512
:101730008091000590910105C817D90720F4D09336
:101740000105C0930005DF91CF911F910F91FF908C
:1017500008952F923F924F925F926F927F928F9255
:101760009F92AF92BF92CF92DF92EF92FF920F9330
:101770001F93CF93DF933C011B015A012901CA013A
:101780000E94F4046C01892B71F088E290E00E94C1
:10179000F404EC01892B19F0D88ECF8A06C0C6015B
:1017A0000E94700502C0C0E0D0E0209791F0950142
:1017B00040E050E0812C912C5E016701E02E820117
:1017C000B101C3010E94530ACE010E94F50A81E0D3
:1017D00001C08FEFDF91CF911F910F91FF90EF909C
:1017E000DF90CF90BF90AF909F908F907F906F9041
:1017F0005F904F903F902F900895EF92FF920F933C
:101800000F2EFEEFEF2EF4E0FF2EF02D00E020E093
:1018100030E04CE251E060E071E08DE99DE00E9433
:10182000A90B813081F4F8948FEF9FEF909301051D
:101830008093000581E080930605109209051092BF
:1018400008050E94A2060F91FF90EF9008958091E5
:10185000FD048F5F8093FD040895DF92EF92FF9265
:101860000F931F93CF93DF938091FD04811197C055
:10187000E0900805F09009058FEFE81AF80AF09259
:101880000905E0920805E114F104B9F480912905F5
:1018900090912A05209127053091280530932A053B
:1018A00020932905909328058093270580910305AF
:1018B0008F5F809303050E94270A80910005909115
:1018C0000105E816F90628F4D12C53C0DD24D39481
:1018D00001C0D12CE0912905F0912A058081811168
:1018E00007C08FEF9FEF909301058093000541C0E3
:1018F000E0912905F0912A050580F681E02DC68149
:10190000D7818A819B81E816F90628F49093010516
:10191000809300052EC08E010E5F1F4FC8010E94EC
:1019200007068C899D89892B21F0CE010C960E9497
:1019300007068E8990910705981710F48093070584
:1019400090E09C01220F331F220F331F220F331F01
:10195000820F931FB801835C9A4F0E94B5059E8940
:10196000E0915805F09159058689981708F0AECF97
:10197000B1CFE0915805F0915905868990E0FC01BE
:10198000EE0FFF1FEE0FFF1FEE0FFF1F8E0F9F1FAB
:10199000FC01E35CFA4F8081823040F409C0809101
:1019A00005058F5F80930505D12C02C0DD24D394FB
:1019B00080910405882311F0DD24D3948D2DDF91CF
:1019C000CF911F910F91FF90EF90DF9008950F93AB
:1019D0001F93CF93DF930FB6F8940F928091FD047D
:1019E00081508093FD048091FD04811158C0809145
:1019F0000A05811133C056C0E0912305F0912405FA
:101A0000C681D781CE010C960E9407068E010E5F1B
:101A10001F4FC8010E9407068E89909107059817ED
:101A200010F48093070590E09C01220F331F220FD2
:101A3000331F220F331F820F931FB801835C9A4F0D
:101A40000E94B5059E89E0915805F0915905868957
:101A5000981730F081E08093040502C0C0E0D0E028
:101A600080911E058111C8CFCD2B11F00E94270A4D
:101A7000C0910505CC2359F00E942D0C882319F044
:101A800081E080930405C150B9F71092050580915B
:101A90000405882331F00E94D10681E003C080E074
:101AA00001C080E00F900FBEDF91CF911F910F9189
:101AB0000895CF93DF93EC01892B49F00E94270C06
:101AC00060E0CE010E94510B0E94E70C01C080E053
:101AD000811102C00E94D106DF91CF910895CF936A
:101AE000DF9324C00E94270CC09115050E94E70CCB
:101AF000CC23E1F00FB6F8940F92E0911A05F09123
:101B00001B05C681D781CE0102960E9407068091EF
:101B10000A05815080930A058091140581508093B5
:101B200014050F900FBECE010E94460A8091140545
:101B30008111D8CFDF91CF9108950E946F0DFDCF15
:101B40008091FD04882321F081E0809304050895AD
:101B5000109204052091070501C02150822F90E0CA
:101B6000FC01EE0FFF1FEE0FFF1FEE0FFF1FE80F30
:101B7000F91FE35CFA4F3081332379F3AC01440F52
:101B8000551F440F551F440F551F480F591FDF01A4
:101B90000180F281E02D0280F381E02D1296FC930A
:101BA000EE931197405C5A4FE417F50729F44281F0
:101BB0005381FD0152834183FC01EE0FFF1FEE0FA5
:101BC000FF1FEE0FFF1F8E0F9F1FFC01E35CFA4FFC
:101BD0000180F281E02D8681978190935905809351
:101BE0005805209307050895CF93DF93EB0160918B
:101BF000580570915905645F7F4F0E94D60561E0DA
:101C0000CE010E94510BDF91CF9108950F931F9346
:101C1000CF93DF93DC011596ED91FC911697C68169
:101C2000D7818E01045F1F4FC8010E940706809173
:101C3000FD0481111CC00A501109C8010E94070649
:101C40008E8990910705981710F48093070590E00E
:101C50009C01220F331F220F331F220F331F820FCD
:101C6000931FB801835C9A4F0E94B50505C0B80167
:101C70008EE195E00E94B5059E89E0915805F091AE
:101C800059058689891720F481E08093040501C0F5
:101C900080E0DF91CF911F910F910895209103056E
:101CA000FC012083209108053091090532832183AE
:101CB00008950FB6F8940F924091080550910905C8
:101CC000DB012D913C912F3FBFEF3B0719F1DC0168
:101CD000FC91E0910305FE1739F01196ED91FC910E
:101CE00012974E175F07C0F4DC011196ED91FC913D
:101CF0001297DA01AE1BBF0BA217B30778F4DB0112
:101D0000E41BF50B2E0F3F1F2D933C930E944E0EAC
:101D100080E005C080E003C081E001C081E00F9059
:101D20000FBE089581E08093040508950F931F93DB
:101D3000CF93DF93FC01892B09F455C02689A0912C
:101D40005805B091590556968C91281708F04BC04C
:101D500084859585992364F0A0915805B091590523
:101D600056963C9183E090E0831B91099587848788
:101D70008285938530E0A901440F551F440F551FFC
:101D8000440F551F240F351F235C3A4F82179307CA
:101D900019F58F01EF012296CE010E940706E0910E
:101DA0005805F09159058689F801868B90910705B1
:101DB000981710F48093070590E09C01220F331FC1
:101DC000220F331F220F331F820F931FBE01835C2C
:101DD0009A4F0E94B50507C0A0915805B0915905CA
:101DE00056968C91868BDF91CF911F910F9108951C
:101DF0000F931F93CF93DF93FC01892B79F182A17D
:101E0000815082A3268991A1291751F181112AC0FD
:101E1000EF018F010E5F1F4FC8010E94070689A1C5
:101E20008E8B23E030E0281B31093D872C87909171
:101E30000705981710F48093070590E09C01220F86
:101E4000331F220F331F220F331F820F931FB8013E
:101E5000835C9A4F0E94B50581E005C080E003C015
:101E600080E001C080E0DF91CF911F910F91089534
:101E70008091580590915905892B39F0E0915805CA
:101E8000F091590582A18F5F82A3809158059091AE
:101E90005905089593B7986093BF93B7906493BF23
:101EA00093B7906293BF93B79F7E93BF93B7987F8A
:101EB00093BF93B7936093BF682F70E080E090E08A
:101EC0000E94FF0F2AE037ED43E250E40E948C109D
:101ED0000E94CE0F6CBF08951F920F920FB60F9203
:101EE00011242F933F934F935F936F937F938F931F
:101EF0009F93AF93BF93EF93FF93E0915A05F091B7
:101F00005B050995FF91EF91BF91AF919F918F91E3
:101F10007F916F915F914F913F912F910F900FBEE5
:101F20000F901F9018951F920F920FB60F921124C9
:101F30002F933F934F935F936F937F938F939F93D1
:101F4000AF93BF93EF93FF93E0915C05F0915D0534
:101F50000995FF91EF91BF91AF919F918F917F91E3
:101F60006F915F914F913F912F910F900FBE0F9006
:101F70001F90189586E880BD87E689B98AB1886088
:101F80008AB98AB180618AB908955F9BFECF8CB10E
:101F900008950E943A1008F481E008950E946610A6
:101FA00088F09F5798F0B92F9927B751B0F0E1F01A
:101FB000660F771F881F991F1AF0BA95C9F714C0CA
:101FC000B13091F00E948010B1E008950C9480101F
:101FD000672F782F8827B85F39F0B93FCCF3869503
:101FE00077956795B395D9F73EF490958095709560
:101FF00061957F4F8F4F9F4F0895E89409C097FBDD
:102000003EF490958095709561957F4F8F4F9F4FCF
:102010009923A9F0F92F96E9BB279395F695879513
:1020200077956795B795F111F8CFFAF4BB0F11F4D6
:1020300060FF1BC06F5F7F4F8F4F9F4F16C088237D
:1020400011F096E911C0772321F09EE8872F762FB3
:1020500005C0662371F096E8862F70E060E02AF0F4
:102060009A95660F771F881FDAF7880F96958795E0
:1020700097F90895990F0008550FAA0BE0E8FEEFB5
:1020800016161706E807F907C0F012161306E4073C
:10209000F50798F0621B730B840B950B39F40A2635
:1020A00061F0232B242B252B21F408950A2609F413
:1020B000A140A6958FEF811D811D089557FD905871
:1020C000440F551F59F05F3F71F04795880F97FBFC
:1020D000991F61F09F3F79F08795089512161306B6
:1020E0001406551FF2CF4695F1DF08C016161706E5
:1020F0001806991FF1CF869571056105089408951A
:10210000E894BB2766277727CB0197F908950E94AB
:102110003A1008F48FEF08950E949F100C9410114C
:102120000E94021138F00E94091120F0952311F04D
:102130000C94F9100C94FF1011240C9481100E943F
:102140005E1070F3959FC1F3950F50E0551F629F8D
:10215000F001729FBB27F00DB11D639FAA27F00D00
:10216000B11DAA1F649F6627B00DA11D661F829F27
:102170002227B00DA11D621F739FB00DA11D621F0C
:10218000839FA00D611D221F749F3327A00D611D29
:10219000231F849F600D211D822F762F6A2F11240B
:1021A0009F5750409AF0F1F088234AF0EE0FFF1F3E
:1021B000BB1F661F771F881F91505040A9F79E3F95
:1021C000510580F00C94F9100C9481105F3FE4F3FA
:1021D000983ED4F3869577956795B795F795E795EB
:1021E0009F5FC1F7FE2B880F911D9695879597F9F4
:1021F000089597F99F6780E870E060E008959FEF89
:1022000080EC089500240A9416161706180609068D
:10221000089500240A94121613061406050608955C
:10222000092E0394000C11F4882352F0BB0F40F4E4
:10223000BF2B11F460FF04C06F5F7F4F8F4F9F4F24
:102240000895A1E21A2EAA1BBB1BFD010DC0AA1FF7
:10225000BB1FEE1FFF1FA217B307E407F50720F00F
:10226000A21BB30BE40BF50B661F771F881F991F8A
:102270001A9469F760957095809590959B01AC01D3
:10228000BD01CF010895FB01DC0102C001900D9258
:0C22900041505040D8F70895F894FFCF5B
:10229C00E703436F72726563742050617373776FD9
:1022AC0072642E0057726F6E672050617373776F74
:1022BC00726421210053797374656D206973204316
:1022CC006C6F7365642021210054656D70657261BB
:1022DC0074757265203D200046616E2053706565F3
:1022EC0064203D2030250046616E20537065656486
:1022FC00203D203330250046616E205370656564A7
:10230C00203D203530250046616E20537065656494
:10231C00203D2031303025007461736B31007461C5
:10232C00736B32007461736B33007461736B3400C4
:06233C0049444C4500007D
:00000001FF
